{
  "_format": "hh3-artifact-1",
  "contractName": "NumberGuessingGame",
  "sourceName": "contracts/NumberGuessingGame.sol",
  "abi": [
    {
      "inputs": [],
      "stateMutability": "nonpayable",
      "type": "constructor"
    },
    {
      "anonymous": false,
      "inputs": [
        {
          "indexed": true,
          "internalType": "address",
          "name": "previousAdmin",
          "type": "address"
        },
        {
          "indexed": true,
          "internalType": "address",
          "name": "newAdmin",
          "type": "address"
        }
      ],
      "name": "AdminChanged",
      "type": "event"
    },
    {
      "anonymous": false,
      "inputs": [
        {
          "indexed": true,
          "internalType": "address",
          "name": "to",
          "type": "address"
        },
        {
          "indexed": false,
          "internalType": "uint256",
          "name": "amount",
          "type": "uint256"
        }
      ],
      "name": "ContractFundsWithdrawal",
      "type": "event"
    },
    {
      "anonymous": false,
      "inputs": [
        {
          "indexed": true,
          "internalType": "uint256",
          "name": "sessionId",
          "type": "uint256"
        },
        {
          "indexed": true,
          "internalType": "address",
          "name": "player",
          "type": "address"
        },
        {
          "indexed": false,
          "internalType": "uint32",
          "name": "number",
          "type": "uint32"
        }
      ],
      "name": "NumberPicked",
      "type": "event"
    },
    {
      "anonymous": false,
      "inputs": [
        {
          "indexed": true,
          "internalType": "uint256",
          "name": "sessionId",
          "type": "uint256"
        },
        {
          "indexed": true,
          "internalType": "address",
          "name": "winner",
          "type": "address"
        },
        {
          "indexed": false,
          "internalType": "uint256",
          "name": "amount",
          "type": "uint256"
        }
      ],
      "name": "PayoutClaimed",
      "type": "event"
    },
    {
      "anonymous": false,
      "inputs": [
        {
          "indexed": true,
          "internalType": "uint256",
          "name": "sessionId",
          "type": "uint256"
        },
        {
          "indexed": false,
          "internalType": "uint256",
          "name": "amount",
          "type": "uint256"
        }
      ],
      "name": "PayoutRefundedToAdmin",
      "type": "event"
    },
    {
      "anonymous": false,
      "inputs": [
        {
          "indexed": true,
          "internalType": "uint256",
          "name": "sessionId",
          "type": "uint256"
        },
        {
          "indexed": false,
          "internalType": "uint32",
          "name": "maxNumber",
          "type": "uint32"
        },
        {
          "indexed": false,
          "internalType": "uint256",
          "name": "payout",
          "type": "uint256"
        },
        {
          "indexed": false,
          "internalType": "uint64",
          "name": "drawTimestamp",
          "type": "uint64"
        }
      ],
      "name": "SessionCreated",
      "type": "event"
    },
    {
      "anonymous": false,
      "inputs": [
        {
          "indexed": true,
          "internalType": "uint256",
          "name": "sessionId",
          "type": "uint256"
        },
        {
          "indexed": false,
          "internalType": "uint32",
          "name": "winningNumber",
          "type": "uint32"
        },
        {
          "indexed": false,
          "internalType": "address",
          "name": "winner",
          "type": "address"
        }
      ],
      "name": "WinningNumberSet",
      "type": "event"
    },
    {
      "inputs": [],
      "name": "admin",
      "outputs": [
        {
          "internalType": "address",
          "name": "",
          "type": "address"
        }
      ],
      "stateMutability": "view",
      "type": "function"
    },
    {
      "inputs": [
        {
          "internalType": "address",
          "name": "newAdmin",
          "type": "address"
        }
      ],
      "name": "changeAdmin",
      "outputs": [],
      "stateMutability": "nonpayable",
      "type": "function"
    },
    {
      "inputs": [
        {
          "internalType": "uint256",
          "name": "sessionId",
          "type": "uint256"
        }
      ],
      "name": "claimPayout",
      "outputs": [],
      "stateMutability": "nonpayable",
      "type": "function"
    },
    {
      "inputs": [
        {
          "internalType": "uint32",
          "name": "maxNumber",
          "type": "uint32"
        },
        {
          "internalType": "uint32",
          "name": "_minutes",
          "type": "uint32"
        }
      ],
      "name": "createSession",
      "outputs": [
        {
          "internalType": "uint256",
          "name": "sessionId",
          "type": "uint256"
        }
      ],
      "stateMutability": "payable",
      "type": "function"
    },
    {
      "inputs": [
        {
          "internalType": "uint256",
          "name": "sessionId",
          "type": "uint256"
        },
        {
          "internalType": "address",
          "name": "player",
          "type": "address"
        }
      ],
      "name": "getPickedNumber",
      "outputs": [
        {
          "internalType": "uint32",
          "name": "",
          "type": "uint32"
        }
      ],
      "stateMutability": "view",
      "type": "function"
    },
    {
      "inputs": [
        {
          "internalType": "uint256",
          "name": "sessionId",
          "type": "uint256"
        }
      ],
      "name": "getTakenBitmap",
      "outputs": [
        {
          "internalType": "uint256[]",
          "name": "bitmap",
          "type": "uint256[]"
        }
      ],
      "stateMutability": "view",
      "type": "function"
    },
    {
      "inputs": [
        {
          "internalType": "uint256",
          "name": "",
          "type": "uint256"
        },
        {
          "internalType": "address",
          "name": "",
          "type": "address"
        }
      ],
      "name": "hasPicked",
      "outputs": [
        {
          "internalType": "bool",
          "name": "",
          "type": "bool"
        }
      ],
      "stateMutability": "view",
      "type": "function"
    },
    {
      "inputs": [],
      "name": "nextSessionId",
      "outputs": [
        {
          "internalType": "uint256",
          "name": "",
          "type": "uint256"
        }
      ],
      "stateMutability": "view",
      "type": "function"
    },
    {
      "inputs": [
        {
          "internalType": "uint256",
          "name": "sessionId",
          "type": "uint256"
        },
        {
          "internalType": "uint32",
          "name": "number",
          "type": "uint32"
        }
      ],
      "name": "pickNumber",
      "outputs": [],
      "stateMutability": "nonpayable",
      "type": "function"
    },
    {
      "inputs": [
        {
          "internalType": "uint256",
          "name": "",
          "type": "uint256"
        },
        {
          "internalType": "uint32",
          "name": "",
          "type": "uint32"
        }
      ],
      "name": "pickedByNumber",
      "outputs": [
        {
          "internalType": "address",
          "name": "",
          "type": "address"
        }
      ],
      "stateMutability": "view",
      "type": "function"
    },
    {
      "inputs": [
        {
          "internalType": "uint256",
          "name": "",
          "type": "uint256"
        },
        {
          "internalType": "address",
          "name": "",
          "type": "address"
        }
      ],
      "name": "pickedNumberByPlayer",
      "outputs": [
        {
          "internalType": "uint32",
          "name": "",
          "type": "uint32"
        }
      ],
      "stateMutability": "view",
      "type": "function"
    },
    {
      "inputs": [
        {
          "internalType": "uint256",
          "name": "",
          "type": "uint256"
        }
      ],
      "name": "sessions",
      "outputs": [
        {
          "internalType": "uint32",
          "name": "maxNumber",
          "type": "uint32"
        },
        {
          "internalType": "uint32",
          "name": "winningNumber",
          "type": "uint32"
        },
        {
          "internalType": "uint64",
          "name": "drawTimestamp",
          "type": "uint64"
        },
        {
          "internalType": "uint256",
          "name": "payout",
          "type": "uint256"
        },
        {
          "internalType": "address",
          "name": "winner",
          "type": "address"
        },
        {
          "internalType": "bool",
          "name": "winningNumberSet",
          "type": "bool"
        },
        {
          "internalType": "bool",
          "name": "payoutClaimed",
          "type": "bool"
        }
      ],
      "stateMutability": "view",
      "type": "function"
    },
    {
      "inputs": [
        {
          "internalType": "uint256",
          "name": "sessionId",
          "type": "uint256"
        },
        {
          "internalType": "uint32",
          "name": "winningNumber",
          "type": "uint32"
        }
      ],
      "name": "setWinningNumber",
      "outputs": [],
      "stateMutability": "nonpayable",
      "type": "function"
    },
    {
      "inputs": [
        {
          "internalType": "address payable",
          "name": "to",
          "type": "address"
        },
        {
          "internalType": "uint256",
          "name": "amount",
          "type": "uint256"
        }
      ],
      "name": "withdrawContractFunds",
      "outputs": [],
      "stateMutability": "nonpayable",
      "type": "function"
    }
  ],
  "bytecode": "0x6080604052348015600e575f5ffd5b50335f5f6101000a81548173ffffffffffffffffffffffffffffffffffffffff021916908373ffffffffffffffffffffffffffffffffffffffff160217905550612b638061005b5f395ff3fe6080604052600436106100dc575f3560e01c80638a69614e1161007e578063c94e21a311610058578063c94e21a3146102bc578063caf97098146102f8578063ee1ec2d714610334578063f851a44014610370576100dc565b80638a69614e1461023c5780638f28397014610264578063aeca28e11461028c576100dc565b80636a52dc42116100ba5780636a52dc421461016e57806377276135146101965780637dd4281a146101be57806383c4b7a3146101fa576100dc565b80632e1888b8146100e0578063436da9031461010857806349bbf7da14610144575b5f5ffd5b3480156100eb575f5ffd5b5061010660048036038101906101019190611b54565b61039a565b005b348015610113575f5ffd5b5061012e60048036038101906101299190611bcd565b6105d4565b60405161013b9190611c29565b60405180910390f35b34801561014f575f5ffd5b50610158610601565b6040516101659190611c51565b60405180910390f35b348015610179575f5ffd5b50610194600480360381019061018f9190611c94565b610607565b005b3480156101a1575f5ffd5b506101bc60048036038101906101b79190611c94565b610a93565b005b3480156101c9575f5ffd5b506101e460048036038101906101df9190611cd2565b610eb0565b6040516101f19190611db4565b60405180910390f35b348015610205575f5ffd5b50610220600480360381019061021b9190611cd2565b610fa0565b6040516102339796959493929190611e1f565b60405180910390f35b348015610247575f5ffd5b50610262600480360381019061025d9190611cd2565b611048565b005b34801561026f575f5ffd5b5061028a60048036038101906102859190611e8c565b61133b565b005b6102a660048036038101906102a19190611eb7565b6114f8565b6040516102b39190611c51565b60405180910390f35b3480156102c7575f5ffd5b506102e260048036038101906102dd9190611bcd565b611858565b6040516102ef9190611ef5565b60405180910390f35b348015610303575f5ffd5b5061031e60048036038101906103199190611bcd565b611882565b60405161032b9190611c29565b60405180910390f35b34801561033f575f5ffd5b5061035a60048036038101906103559190611c94565b61197f565b6040516103679190611f0e565b60405180910390f35b34801561037b575f5ffd5b506103846119bc565b6040516103919190611f0e565b60405180910390f35b5f5f9054906101000a900473ffffffffffffffffffffffffffffffffffffffff1673ffffffffffffffffffffffffffffffffffffffff163373ffffffffffffffffffffffffffffffffffffffff1614610428576040517f08c379a000000000000000000000000000000000000000000000000000000000815260040161041f90611f81565b60405180910390fd5b5f73ffffffffffffffffffffffffffffffffffffffff168273ffffffffffffffffffffffffffffffffffffffff1603610496576040517f08c379a000000000000000000000000000000000000000000000000000000000815260040161048d90611fe9565b60405180910390fd5b478111156104d9576040517f08c379a00000000000000000000000000000000000000000000000000000000081526004016104d090612051565b60405180910390fd5b5f8273ffffffffffffffffffffffffffffffffffffffff16826040516104fe9061209c565b5f6040518083038185875af1925050503d805f8114610538576040519150601f19603f3d011682016040523d82523d5f602084013e61053d565b606091505b5050905080610581576040517f08c379a0000000000000000000000000000000000000000000000000000000008152600401610578906120fa565b60405180910390fd5b8273ffffffffffffffffffffffffffffffffffffffff167ff3106f0aaac1fc36f1651815b79a498963f892adea93f15d7fd9db9c66f2fd27836040516105c79190611c51565b60405180910390a2505050565b6004602052815f5260405f20602052805f5260405f205f915091509054906101000a900463ffffffff1681565b60015481565b5f5f9054906101000a900473ffffffffffffffffffffffffffffffffffffffff1673ffffffffffffffffffffffffffffffffffffffff163373ffffffffffffffffffffffffffffffffffffffff1614610695576040517f08c379a000000000000000000000000000000000000000000000000000000000815260040161068c90611f81565b60405180910390fd5b5f61069f836119e0565b90508060020160149054906101000a900460ff16156106f3576040517f08c379a00000000000000000000000000000000000000000000000000000000081526004016106ea90612162565b60405180910390fd5b805f0160089054906101000a900467ffffffffffffffff1667ffffffffffffffff16421015610757576040517f08c379a000000000000000000000000000000000000000000000000000000000815260040161074e906121ca565b60405180910390fd5b60018263ffffffff161015801561078c5750805f015f9054906101000a900463ffffffff1663ffffffff168263ffffffff1611155b6107cb576040517f08c379a00000000000000000000000000000000000000000000000000000000081526004016107c290612232565b60405180910390fd5b81815f0160046101000a81548163ffffffff021916908363ffffffff16021790555060018160020160146101000a81548160ff02191690831515021790555060035f8481526020019081526020015f205f8363ffffffff1663ffffffff1681526020019081526020015f205f9054906101000a900473ffffffffffffffffffffffffffffffffffffffff16816002015f6101000a81548173ffffffffffffffffffffffffffffffffffffffff021916908373ffffffffffffffffffffffffffffffffffffffff1602179055505f73ffffffffffffffffffffffffffffffffffffffff16816002015f9054906101000a900473ffffffffffffffffffffffffffffffffffffffff1673ffffffffffffffffffffffffffffffffffffffff1614801561090457508060020160159054906101000a900460ff16155b15610a315760018160020160156101000a81548160ff0219169083151502179055505f816001015490505f5f5f9054906101000a900473ffffffffffffffffffffffffffffffffffffffff1673ffffffffffffffffffffffffffffffffffffffff16826040516109739061209c565b5f6040518083038185875af1925050503d805f81146109ad576040519150601f19603f3d011682016040523d82523d5f602084013e6109b2565b606091505b50509050806109f6576040517f08c379a00000000000000000000000000000000000000000000000000000000081526004016109ed9061229a565b60405180910390fd5b847f936d06c1a912578ed6600db5c10c9cf6973ca58022d6ecf9ea6a01c98a92be2e83604051610a269190611c51565b60405180910390a250505b827f787a509f64119c7bfed9aeb8bc453bacea576768ebe43d35adbdc6a6d0718d2983836002015f9054906101000a900473ffffffffffffffffffffffffffffffffffffffff16604051610a869291906122b8565b60405180910390a2505050565b5f610a9d836119e0565b90508060020160149054906101000a900460ff1615610af1576040517f08c379a0000000000000000000000000000000000000000000000000000000008152600401610ae890612329565b60405180910390fd5b805f0160089054906101000a900467ffffffffffffffff1667ffffffffffffffff164210610b54576040517f08c379a0000000000000000000000000000000000000000000000000000000008152600401610b4b90612391565b60405180910390fd5b60018263ffffffff1610158015610b895750805f015f9054906101000a900463ffffffff1663ffffffff168263ffffffff1611155b610bc8576040517f08c379a0000000000000000000000000000000000000000000000000000000008152600401610bbf90612232565b60405180910390fd5b60055f8481526020019081526020015f205f3373ffffffffffffffffffffffffffffffffffffffff1673ffffffffffffffffffffffffffffffffffffffff1681526020019081526020015f205f9054906101000a900460ff1615610c61576040517f08c379a0000000000000000000000000000000000000000000000000000000008152600401610c58906123f9565b60405180910390fd5b5f73ffffffffffffffffffffffffffffffffffffffff1660035f8581526020019081526020015f205f8463ffffffff1663ffffffff1681526020019081526020015f205f9054906101000a900473ffffffffffffffffffffffffffffffffffffffff1673ffffffffffffffffffffffffffffffffffffffff1614610d1a576040517f08c379a0000000000000000000000000000000000000000000000000000000008152600401610d1190612461565b60405180910390fd5b3360035f8581526020019081526020015f205f8463ffffffff1663ffffffff1681526020019081526020015f205f6101000a81548173ffffffffffffffffffffffffffffffffffffffff021916908373ffffffffffffffffffffffffffffffffffffffff1602179055508160045f8581526020019081526020015f205f3373ffffffffffffffffffffffffffffffffffffffff1673ffffffffffffffffffffffffffffffffffffffff1681526020019081526020015f205f6101000a81548163ffffffff021916908363ffffffff160217905550600160055f8581526020019081526020015f205f3373ffffffffffffffffffffffffffffffffffffffff1673ffffffffffffffffffffffffffffffffffffffff1681526020019081526020015f205f6101000a81548160ff021916908315150217905550610e5c8383611a53565b3373ffffffffffffffffffffffffffffffffffffffff16837f628a49b30ab3b878a4b01b3f2a2c367774e58f8edc07e10a0ecaf4f18eb33ca884604051610ea39190611c29565b60405180910390a3505050565b60605f610ebc836119e0565b90505f61010060ff835f015f9054906101000a900463ffffffff1663ffffffff16610ee791906124ac565b610ef1919061250c565b90508067ffffffffffffffff811115610f0d57610f0c61253c565b5b604051908082528060200260200182016040528015610f3b5781602001602082028036833780820191505090505b5092505f5f90505b81811015610f985760065f8681526020019081526020015f205f8281526020019081526020015f2054848281518110610f7f57610f7e612569565b5b6020026020010181815250508080600101915050610f43565b505050919050565b6002602052805f5260405f205f91509050805f015f9054906101000a900463ffffffff1690805f0160049054906101000a900463ffffffff1690805f0160089054906101000a900467ffffffffffffffff1690806001015490806002015f9054906101000a900473ffffffffffffffffffffffffffffffffffffffff16908060020160149054906101000a900460ff16908060020160159054906101000a900460ff16905087565b5f611052826119e0565b90508060020160149054906101000a900460ff166110a5576040517f08c379a000000000000000000000000000000000000000000000000000000000815260040161109c906125e0565b60405180910390fd5b8060020160159054906101000a900460ff16156110f7576040517f08c379a00000000000000000000000000000000000000000000000000000000081526004016110ee90612648565b60405180910390fd5b5f73ffffffffffffffffffffffffffffffffffffffff16816002015f9054906101000a900473ffffffffffffffffffffffffffffffffffffffff1673ffffffffffffffffffffffffffffffffffffffff1603611188576040517f08c379a000000000000000000000000000000000000000000000000000000000815260040161117f906126b0565b60405180910390fd5b806002015f9054906101000a900473ffffffffffffffffffffffffffffffffffffffff1673ffffffffffffffffffffffffffffffffffffffff163373ffffffffffffffffffffffffffffffffffffffff1614611219576040517f08c379a000000000000000000000000000000000000000000000000000000000815260040161121090612718565b60405180910390fd5b5f8160010154905060018260020160156101000a81548160ff0219169083151502179055505f3373ffffffffffffffffffffffffffffffffffffffff16826040516112639061209c565b5f6040518083038185875af1925050503d805f811461129d576040519150601f19603f3d011682016040523d82523d5f602084013e6112a2565b606091505b50509050806112e6576040517f08c379a00000000000000000000000000000000000000000000000000000000081526004016112dd90612780565b60405180910390fd5b3373ffffffffffffffffffffffffffffffffffffffff16847fe97cee5a4c0549d3fdc81e322b718ddf0aeb3418ec87dce4f9a7fb28d117c3128460405161132d9190611c51565b60405180910390a350505050565b5f5f9054906101000a900473ffffffffffffffffffffffffffffffffffffffff1673ffffffffffffffffffffffffffffffffffffffff163373ffffffffffffffffffffffffffffffffffffffff16146113c9576040517f08c379a00000000000000000000000000000000000000000000000000000000081526004016113c090611f81565b60405180910390fd5b5f73ffffffffffffffffffffffffffffffffffffffff168173ffffffffffffffffffffffffffffffffffffffff1603611437576040517f08c379a000000000000000000000000000000000000000000000000000000000815260040161142e906127e8565b60405180910390fd5b5f5f5f9054906101000a900473ffffffffffffffffffffffffffffffffffffffff169050815f5f6101000a81548173ffffffffffffffffffffffffffffffffffffffff021916908373ffffffffffffffffffffffffffffffffffffffff1602179055508173ffffffffffffffffffffffffffffffffffffffff168173ffffffffffffffffffffffffffffffffffffffff167f7e644d79422f17c01e4894b5f4f588d331ebfa28653d42ae832dc59e38c9798f60405160405180910390a35050565b5f5f5f9054906101000a900473ffffffffffffffffffffffffffffffffffffffff1673ffffffffffffffffffffffffffffffffffffffff163373ffffffffffffffffffffffffffffffffffffffff1614611587576040517f08c379a000000000000000000000000000000000000000000000000000000000815260040161157e90611f81565b60405180910390fd5b5f8363ffffffff16116115cf576040517f08c379a00000000000000000000000000000000000000000000000000000000081526004016115c690612850565b60405180910390fd5b5f8263ffffffff1611611617576040517f08c379a000000000000000000000000000000000000000000000000000000000815260040161160e906128b8565b60405180910390fd5b5f3411611659576040517f08c379a000000000000000000000000000000000000000000000000000000000815260040161165090612920565b60405180910390fd5b600154905060015f8154809291906116709061293e565b91905055505f603c836116839190612985565b63ffffffff164261169491906124ac565b90506040518060e001604052808563ffffffff1681526020015f63ffffffff1681526020018267ffffffffffffffff1681526020013481526020015f73ffffffffffffffffffffffffffffffffffffffff1681526020015f151581526020015f151581525060025f8481526020019081526020015f205f820151815f015f6101000a81548163ffffffff021916908363ffffffff1602179055506020820151815f0160046101000a81548163ffffffff021916908363ffffffff1602179055506040820151815f0160086101000a81548167ffffffffffffffff021916908367ffffffffffffffff160217905550606082015181600101556080820151816002015f6101000a81548173ffffffffffffffffffffffffffffffffffffffff021916908373ffffffffffffffffffffffffffffffffffffffff16021790555060a08201518160020160146101000a81548160ff02191690831515021790555060c08201518160020160156101000a81548160ff021916908315150217905550905050817f3016ce5f3297b7ac3410ac403794344960492998a9941c379d85060b0dd53098853484604051611849939291906129c1565b60405180910390a25092915050565b6005602052815f5260405f20602052805f5260405f205f915091509054906101000a900460ff1681565b5f60055f8481526020019081526020015f205f8373ffffffffffffffffffffffffffffffffffffffff1673ffffffffffffffffffffffffffffffffffffffff1681526020019081526020015f205f9054906101000a900460ff1661191b576040517f08c379a000000000000000000000000000000000000000000000000000000000815260040161191290612a40565b60405180910390fd5b60045f8481526020019081526020015f205f8373ffffffffffffffffffffffffffffffffffffffff1673ffffffffffffffffffffffffffffffffffffffff1681526020019081526020015f205f9054906101000a900463ffffffff16905092915050565b6003602052815f5260405f20602052805f5260405f205f915091509054906101000a900473ffffffffffffffffffffffffffffffffffffffff1681565b5f5f9054906101000a900473ffffffffffffffffffffffffffffffffffffffff1681565b5f60025f8381526020019081526020015f2090505f815f015f9054906101000a900463ffffffff1663ffffffff1603611a4e576040517f08c379a0000000000000000000000000000000000000000000000000000000008152600401611a4590612aa8565b60405180910390fd5b919050565b5f600182611a619190612ac6565b63ffffffff1690505f61010082611a78919061250c565b90505f61010083611a899190612afd565b9050806001901b60065f8781526020019081526020015f205f8481526020019081526020015f205f82825417925050819055505050505050565b5f5ffd5b5f73ffffffffffffffffffffffffffffffffffffffff82169050919050565b5f611af082611ac7565b9050919050565b611b0081611ae6565b8114611b0a575f5ffd5b50565b5f81359050611b1b81611af7565b92915050565b5f819050919050565b611b3381611b21565b8114611b3d575f5ffd5b50565b5f81359050611b4e81611b2a565b92915050565b5f5f60408385031215611b6a57611b69611ac3565b5b5f611b7785828601611b0d565b9250506020611b8885828601611b40565b9150509250929050565b5f611b9c82611ac7565b9050919050565b611bac81611b92565b8114611bb6575f5ffd5b50565b5f81359050611bc781611ba3565b92915050565b5f5f60408385031215611be357611be2611ac3565b5b5f611bf085828601611b40565b9250506020611c0185828601611bb9565b9150509250929050565b5f63ffffffff82169050919050565b611c2381611c0b565b82525050565b5f602082019050611c3c5f830184611c1a565b92915050565b611c4b81611b21565b82525050565b5f602082019050611c645f830184611c42565b92915050565b611c7381611c0b565b8114611c7d575f5ffd5b50565b5f81359050611c8e81611c6a565b92915050565b5f5f60408385031215611caa57611ca9611ac3565b5b5f611cb785828601611b40565b9250506020611cc885828601611c80565b9150509250929050565b5f60208284031215611ce757611ce6611ac3565b5b5f611cf484828501611b40565b91505092915050565b5f81519050919050565b5f82825260208201905092915050565b5f819050602082019050919050565b611d2f81611b21565b82525050565b5f611d408383611d26565b60208301905092915050565b5f602082019050919050565b5f611d6282611cfd565b611d6c8185611d07565b9350611d7783611d17565b805f5b83811015611da7578151611d8e8882611d35565b9750611d9983611d4c565b925050600181019050611d7a565b5085935050505092915050565b5f6020820190508181035f830152611dcc8184611d58565b905092915050565b5f67ffffffffffffffff82169050919050565b611df081611dd4565b82525050565b611dff81611b92565b82525050565b5f8115159050919050565b611e1981611e05565b82525050565b5f60e082019050611e325f83018a611c1a565b611e3f6020830189611c1a565b611e4c6040830188611de7565b611e596060830187611c42565b611e666080830186611df6565b611e7360a0830185611e10565b611e8060c0830184611e10565b98975050505050505050565b5f60208284031215611ea157611ea0611ac3565b5b5f611eae84828501611bb9565b91505092915050565b5f5f60408385031215611ecd57611ecc611ac3565b5b5f611eda85828601611c80565b9250506020611eeb85828601611c80565b9150509250929050565b5f602082019050611f085f830184611e10565b92915050565b5f602082019050611f215f830184611df6565b92915050565b5f82825260208201905092915050565b7f6f6e6c792061646d696e000000000000000000000000000000000000000000005f82015250565b5f611f6b600a83611f27565b9150611f7682611f37565b602082019050919050565b5f6020820190508181035f830152611f9881611f5f565b9050919050565b7f696e76616c696420726563697069656e740000000000000000000000000000005f82015250565b5f611fd3601183611f27565b9150611fde82611f9f565b602082019050919050565b5f6020820190508181035f83015261200081611fc7565b9050919050565b7f696e73756666696369656e742062616c616e63650000000000000000000000005f82015250565b5f61203b601483611f27565b915061204682612007565b602082019050919050565b5f6020820190508181035f8301526120688161202f565b9050919050565b5f81905092915050565b50565b5f6120875f8361206f565b915061209282612079565b5f82019050919050565b5f6120a68261207c565b9150819050919050565b7f7769746864726177207472616e73666572206661696c656400000000000000005f82015250565b5f6120e4601883611f27565b91506120ef826120b0565b602082019050919050565b5f6020820190508181035f830152612111816120d8565b9050919050565b7f77696e6e696e67206e756d62657220616c7265616479207365740000000000005f82015250565b5f61214c601a83611f27565b915061215782612118565b602082019050919050565b5f6020820190508181035f83015261217981612140565b9050919050565b7f746f6f206561726c7900000000000000000000000000000000000000000000005f82015250565b5f6121b4600983611f27565b91506121bf82612180565b602082019050919050565b5f6020820190508181035f8301526121e1816121a8565b9050919050565b7f6e756d626572206f7574206f662072616e6765000000000000000000000000005f82015250565b5f61221c601383611f27565b9150612227826121e8565b602082019050919050565b5f6020820190508181035f83015261224981612210565b9050919050565b7f61646d696e20726566756e64207472616e73666572206661696c6564000000005f82015250565b5f612284601c83611f27565b915061228f82612250565b602082019050919050565b5f6020820190508181035f8301526122b181612278565b9050919050565b5f6040820190506122cb5f830185611c1a565b6122d86020830184611df6565b9392505050565b7f77696e6e657220616c72656164792063686f73656e00000000000000000000005f82015250565b5f612313601583611f27565b915061231e826122df565b602082019050919050565b5f6020820190508181035f83015261234081612307565b9050919050565b7f73657373696f6e20636c6f7365640000000000000000000000000000000000005f82015250565b5f61237b600e83611f27565b915061238682612347565b602082019050919050565b5f6020820190508181035f8301526123a88161236f565b9050919050565b7f616c7265616479207069636b65640000000000000000000000000000000000005f82015250565b5f6123e3600e83611f27565b91506123ee826123af565b602082019050919050565b5f6020820190508181035f830152612410816123d7565b9050919050565b7f6e756d62657220616c7265616479207069636b656400000000000000000000005f82015250565b5f61244b601583611f27565b915061245682612417565b602082019050919050565b5f6020820190508181035f8301526124788161243f565b9050919050565b7f4e487b71000000000000000000000000000000000000000000000000000000005f52601160045260245ffd5b5f6124b682611b21565b91506124c183611b21565b92508282019050808211156124d9576124d861247f565b5b92915050565b7f4e487b71000000000000000000000000000000000000000000000000000000005f52601260045260245ffd5b5f61251682611b21565b915061252183611b21565b925082612531576125306124df565b5b828204905092915050565b7f4e487b71000000000000000000000000000000000000000000000000000000005f52604160045260245ffd5b7f4e487b71000000000000000000000000000000000000000000000000000000005f52603260045260245ffd5b7f77696e6e696e67206e756d626572206e6f7420736574000000000000000000005f82015250565b5f6125ca601683611f27565b91506125d582612596565b602082019050919050565b5f6020820190508181035f8301526125f7816125be565b9050919050565b7f7061796f757420616c726561647920636c61696d6564000000000000000000005f82015250565b5f612632601683611f27565b915061263d826125fe565b602082019050919050565b5f6020820190508181035f83015261265f81612626565b9050919050565b7f6e6f2077696e6e657200000000000000000000000000000000000000000000005f82015250565b5f61269a600983611f27565b91506126a582612666565b602082019050919050565b5f6020820190508181035f8301526126c78161268e565b9050919050565b7f6e6f742077696e6e6572000000000000000000000000000000000000000000005f82015250565b5f612702600a83611f27565b915061270d826126ce565b602082019050919050565b5f6020820190508181035f83015261272f816126f6565b9050919050565b7f7061796f7574207472616e73666572206661696c6564000000000000000000005f82015250565b5f61276a601683611f27565b915061277582612736565b602082019050919050565b5f6020820190508181035f8301526127978161275e565b9050919050565b7f696e76616c69642061646d696e000000000000000000000000000000000000005f82015250565b5f6127d2600d83611f27565b91506127dd8261279e565b602082019050919050565b5f6020820190508181035f8301526127ff816127c6565b9050919050565b7f6d61784e756d626572206d757374206265203e203000000000000000000000005f82015250565b5f61283a601583611f27565b915061284582612806565b602082019050919050565b5f6020820190508181035f8301526128678161282e565b9050919050565b7f6d696e75746573206d757374206265203e2030000000000000000000000000005f82015250565b5f6128a2601383611f27565b91506128ad8261286e565b602082019050919050565b5f6020820190508181035f8301526128cf81612896565b9050919050565b7f7061796f7574206d757374206265203e203000000000000000000000000000005f82015250565b5f61290a601283611f27565b9150612915826128d6565b602082019050919050565b5f6020820190508181035f830152612937816128fe565b9050919050565b5f61294882611b21565b91507fffffffffffffffffffffffffffffffffffffffffffffffffffffffffffffffff820361297a5761297961247f565b5b600182019050919050565b5f61298f82611c0b565b915061299a83611c0b565b92508282026129a881611c0b565b91508082146129ba576129b961247f565b5b5092915050565b5f6060820190506129d45f830186611c1a565b6129e16020830185611c42565b6129ee6040830184611de7565b949350505050565b7f706c6179657220686173206e6f74207069636b656400000000000000000000005f82015250565b5f612a2a601583611f27565b9150612a35826129f6565b602082019050919050565b5f6020820190508181035f830152612a5781612a1e565b9050919050565b7f73657373696f6e20646f6573206e6f74206578697374000000000000000000005f82015250565b5f612a92601683611f27565b9150612a9d82612a5e565b602082019050919050565b5f6020820190508181035f830152612abf81612a86565b9050919050565b5f612ad082611c0b565b9150612adb83611c0b565b9250828203905063ffffffff811115612af757612af661247f565b5b92915050565b5f612b0782611b21565b9150612b1283611b21565b925082612b2257612b216124df565b5b82820690509291505056fea2646970667358221220e25d715e3fdc464740f8b87351647c70e65132feb28ba1b77cfb3d768b42b03964736f6c634300081c0033",
  "linkReferences": {},
  "deployedLinkReferences": {},
  "immutableReferences": {},
  "inputSourceName": "project/contracts/NumberGuessingGame.sol",
  "buildInfoId": "solc-0_8_28-aa7e24789ebe79e530e9ddb48538c113081a83f8"
}