{
  "_format": "hh3-artifact-1",
  "contractName": "NumberGuessingGame",
  "sourceName": "contracts/NumberGuessingGame.sol",
  "abi": [
    {
      "inputs": [],
      "stateMutability": "nonpayable",
      "type": "constructor"
    },
    {
      "anonymous": false,
      "inputs": [
        {
          "indexed": true,
          "internalType": "address",
          "name": "addedBy",
          "type": "address"
        },
        {
          "indexed": true,
          "internalType": "address",
          "name": "newAdmin",
          "type": "address"
        }
      ],
      "name": "AdminAdded",
      "type": "event"
    },
    {
      "anonymous": false,
      "inputs": [
        {
          "indexed": true,
          "internalType": "address",
          "name": "removedBy",
          "type": "address"
        },
        {
          "indexed": true,
          "internalType": "address",
          "name": "removedAdmin",
          "type": "address"
        }
      ],
      "name": "AdminRemoved",
      "type": "event"
    },
    {
      "anonymous": false,
      "inputs": [
        {
          "indexed": true,
          "internalType": "address",
          "name": "to",
          "type": "address"
        },
        {
          "indexed": false,
          "internalType": "uint256",
          "name": "amount",
          "type": "uint256"
        }
      ],
      "name": "ContractFundsWithdrawal",
      "type": "event"
    },
    {
      "anonymous": false,
      "inputs": [
        {
          "indexed": true,
          "internalType": "uint256",
          "name": "sessionId",
          "type": "uint256"
        },
        {
          "indexed": true,
          "internalType": "address",
          "name": "player",
          "type": "address"
        },
        {
          "indexed": false,
          "internalType": "uint32",
          "name": "number",
          "type": "uint32"
        }
      ],
      "name": "NumberPicked",
      "type": "event"
    },
    {
      "anonymous": false,
      "inputs": [
        {
          "indexed": true,
          "internalType": "uint256",
          "name": "sessionId",
          "type": "uint256"
        },
        {
          "indexed": true,
          "internalType": "address",
          "name": "winner",
          "type": "address"
        },
        {
          "indexed": false,
          "internalType": "uint256",
          "name": "amount",
          "type": "uint256"
        }
      ],
      "name": "PayoutClaimed",
      "type": "event"
    },
    {
      "anonymous": false,
      "inputs": [
        {
          "indexed": true,
          "internalType": "uint256",
          "name": "sessionId",
          "type": "uint256"
        },
        {
          "indexed": false,
          "internalType": "uint256",
          "name": "amount",
          "type": "uint256"
        }
      ],
      "name": "PayoutRefundedToAdmin",
      "type": "event"
    },
    {
      "anonymous": false,
      "inputs": [
        {
          "indexed": true,
          "internalType": "uint256",
          "name": "sessionId",
          "type": "uint256"
        },
        {
          "indexed": false,
          "internalType": "uint32",
          "name": "maxNumber",
          "type": "uint32"
        },
        {
          "indexed": false,
          "internalType": "uint256",
          "name": "payout",
          "type": "uint256"
        },
        {
          "indexed": false,
          "internalType": "uint64",
          "name": "drawTimestamp",
          "type": "uint64"
        }
      ],
      "name": "SessionCreated",
      "type": "event"
    },
    {
      "anonymous": false,
      "inputs": [
        {
          "indexed": true,
          "internalType": "uint256",
          "name": "sessionId",
          "type": "uint256"
        },
        {
          "indexed": false,
          "internalType": "uint32",
          "name": "winningNumber",
          "type": "uint32"
        },
        {
          "indexed": false,
          "internalType": "address",
          "name": "winner",
          "type": "address"
        }
      ],
      "name": "WinningNumberSet",
      "type": "event"
    },
    {
      "inputs": [
        {
          "internalType": "address",
          "name": "newAdmin",
          "type": "address"
        }
      ],
      "name": "addAdmin",
      "outputs": [],
      "stateMutability": "nonpayable",
      "type": "function"
    },
    {
      "inputs": [
        {
          "internalType": "address",
          "name": "",
          "type": "address"
        }
      ],
      "name": "admins",
      "outputs": [
        {
          "internalType": "bool",
          "name": "",
          "type": "bool"
        }
      ],
      "stateMutability": "view",
      "type": "function"
    },
    {
      "inputs": [
        {
          "internalType": "uint256",
          "name": "sessionId",
          "type": "uint256"
        }
      ],
      "name": "claimPayout",
      "outputs": [],
      "stateMutability": "nonpayable",
      "type": "function"
    },
    {
      "inputs": [
        {
          "internalType": "uint32",
          "name": "maxNumber",
          "type": "uint32"
        },
        {
          "internalType": "uint32",
          "name": "_minutes",
          "type": "uint32"
        },
        {
          "internalType": "address",
          "name": "refundAdmin",
          "type": "address"
        }
      ],
      "name": "createSession",
      "outputs": [
        {
          "internalType": "uint256",
          "name": "sessionId",
          "type": "uint256"
        }
      ],
      "stateMutability": "payable",
      "type": "function"
    },
    {
      "inputs": [
        {
          "internalType": "uint32",
          "name": "maxNumber",
          "type": "uint32"
        },
        {
          "internalType": "uint32",
          "name": "_minutes",
          "type": "uint32"
        }
      ],
      "name": "createSession",
      "outputs": [
        {
          "internalType": "uint256",
          "name": "sessionId",
          "type": "uint256"
        }
      ],
      "stateMutability": "payable",
      "type": "function"
    },
    {
      "inputs": [
        {
          "internalType": "uint256",
          "name": "sessionId",
          "type": "uint256"
        },
        {
          "internalType": "address",
          "name": "player",
          "type": "address"
        }
      ],
      "name": "getPickedNumber",
      "outputs": [
        {
          "internalType": "uint32",
          "name": "",
          "type": "uint32"
        }
      ],
      "stateMutability": "view",
      "type": "function"
    },
    {
      "inputs": [
        {
          "internalType": "uint256",
          "name": "sessionId",
          "type": "uint256"
        }
      ],
      "name": "getTakenBitmap",
      "outputs": [
        {
          "internalType": "uint256[]",
          "name": "bitmap",
          "type": "uint256[]"
        }
      ],
      "stateMutability": "view",
      "type": "function"
    },
    {
      "inputs": [
        {
          "internalType": "uint256",
          "name": "",
          "type": "uint256"
        },
        {
          "internalType": "address",
          "name": "",
          "type": "address"
        }
      ],
      "name": "hasPicked",
      "outputs": [
        {
          "internalType": "bool",
          "name": "",
          "type": "bool"
        }
      ],
      "stateMutability": "view",
      "type": "function"
    },
    {
      "inputs": [],
      "name": "nextSessionId",
      "outputs": [
        {
          "internalType": "uint256",
          "name": "",
          "type": "uint256"
        }
      ],
      "stateMutability": "view",
      "type": "function"
    },
    {
      "inputs": [
        {
          "internalType": "uint256",
          "name": "sessionId",
          "type": "uint256"
        },
        {
          "internalType": "uint32",
          "name": "number",
          "type": "uint32"
        }
      ],
      "name": "pickNumber",
      "outputs": [],
      "stateMutability": "nonpayable",
      "type": "function"
    },
    {
      "inputs": [
        {
          "internalType": "uint256",
          "name": "",
          "type": "uint256"
        },
        {
          "internalType": "uint32",
          "name": "",
          "type": "uint32"
        }
      ],
      "name": "pickedByNumber",
      "outputs": [
        {
          "internalType": "address",
          "name": "",
          "type": "address"
        }
      ],
      "stateMutability": "view",
      "type": "function"
    },
    {
      "inputs": [
        {
          "internalType": "uint256",
          "name": "",
          "type": "uint256"
        },
        {
          "internalType": "address",
          "name": "",
          "type": "address"
        }
      ],
      "name": "pickedNumberByPlayer",
      "outputs": [
        {
          "internalType": "uint32",
          "name": "",
          "type": "uint32"
        }
      ],
      "stateMutability": "view",
      "type": "function"
    },
    {
      "inputs": [
        {
          "internalType": "address",
          "name": "adminToRemove",
          "type": "address"
        }
      ],
      "name": "removeAdmin",
      "outputs": [],
      "stateMutability": "nonpayable",
      "type": "function"
    },
    {
      "inputs": [
        {
          "internalType": "uint256",
          "name": "",
          "type": "uint256"
        }
      ],
      "name": "sessions",
      "outputs": [
        {
          "internalType": "uint32",
          "name": "maxNumber",
          "type": "uint32"
        },
        {
          "internalType": "uint32",
          "name": "winningNumber",
          "type": "uint32"
        },
        {
          "internalType": "uint64",
          "name": "drawTimestamp",
          "type": "uint64"
        },
        {
          "internalType": "uint256",
          "name": "payout",
          "type": "uint256"
        },
        {
          "internalType": "address",
          "name": "refundAdmin",
          "type": "address"
        },
        {
          "internalType": "address",
          "name": "winner",
          "type": "address"
        },
        {
          "internalType": "bool",
          "name": "winningNumberSet",
          "type": "bool"
        },
        {
          "internalType": "bool",
          "name": "payoutClaimed",
          "type": "bool"
        }
      ],
      "stateMutability": "view",
      "type": "function"
    },
    {
      "inputs": [
        {
          "internalType": "uint256",
          "name": "sessionId",
          "type": "uint256"
        },
        {
          "internalType": "uint32",
          "name": "winningNumber",
          "type": "uint32"
        }
      ],
      "name": "setWinningNumber",
      "outputs": [],
      "stateMutability": "nonpayable",
      "type": "function"
    },
    {
      "inputs": [
        {
          "internalType": "address payable",
          "name": "to",
          "type": "address"
        },
        {
          "internalType": "uint256",
          "name": "amount",
          "type": "uint256"
        }
      ],
      "name": "withdrawContractFunds",
      "outputs": [],
      "stateMutability": "nonpayable",
      "type": "function"
    }
  ],
  "bytecode": "0x6080604052348015600e575f5ffd5b50335f81815260208190526040808220805460ff191660011790555182917fbf3f493c772c8c283fd124432c2d0f539ab343faa04258fe88e52912d36b102b91a361197c8061005c5f395ff3fe6080604052600436106100ef575f3560e01c80637dd4281a11610087578063aeca28e111610057578063aeca28e114610391578063c94e21a3146103a4578063caf97098146103dd578063ee1ec2d7146103fc575f5ffd5b80637dd4281a1461024757806383c4b7a31461027357806386a44ce51461035f5780638a69614e14610372575f5ffd5b806349bbf7da116100c257806349bbf7da146101c75780636a52dc42146101ea57806370480275146102095780637727613514610228575f5ffd5b80631785f53c146100f35780632e1888b814610114578063429b62e514610133578063436da90314610176575b5f5ffd5b3480156100fe575f5ffd5b5061011261010d3660046116c3565b610453565b005b34801561011f575f5ffd5b5061011261012e3660046116e5565b6105b9565b34801561013e575f5ffd5b5061016161014d3660046116c3565b5f6020819052908152604090205460ff1681565b60405190151581526020015b60405180910390f35b348015610181575f5ffd5b506101b261019036600461170f565b600460209081525f928352604080842090915290825290205463ffffffff1681565b60405163ffffffff909116815260200161016d565b3480156101d2575f5ffd5b506101dc60015481565b60405190815260200161016d565b3480156101f5575f5ffd5b50610112610204366004611750565b61075f565b348015610214575f5ffd5b506101126102233660046116c3565b610aac565b348015610233575f5ffd5b50610112610242366004611750565b610bc4565b348015610252575f5ffd5b5061026661026136600461177a565b610e5f565b60405161016d9190611791565b34801561027e575f5ffd5b506102ff61028d36600461177a565b600260208190525f9182526040909120805460018201549282015460039092015463ffffffff80831694640100000000840490911693600160401b90930467ffffffffffffffff169290916001600160a01b0391821691811690600160a01b810460ff90811691600160a81b90041688565b6040805163ffffffff998a16815298909716602089015267ffffffffffffffff9095169587019590955260608601929092526001600160a01b0390811660808601521660a084015290151560c0830152151560e08201526101000161016d565b6101dc61036d3660046117d3565b610f2a565b34801561037d575f5ffd5b5061011261038c36600461177a565b610f6b565b6101dc61039f366004611817565b611195565b3480156103af575f5ffd5b506101616103be36600461170f565b600560209081525f928352604080842090915290825290205460ff1681565b3480156103e8575f5ffd5b506101b26103f736600461170f565b6111d7565b348015610407575f5ffd5b5061043b610416366004611750565b600360209081525f92835260408084209091529082529020546001600160a01b031681565b6040516001600160a01b03909116815260200161016d565b335f9081526020819052604090205460ff1661048a5760405162461bcd60e51b81526004016104819061183f565b60405180910390fd5b6001600160a01b0381166104d05760405162461bcd60e51b815260206004820152600d60248201526c34b73b30b634b21030b236b4b760991b6044820152606401610481565b336001600160a01b0382160361051d5760405162461bcd60e51b815260206004820152601260248201527131b0b73737ba103932b6b7bb329039b2b63360711b6044820152606401610481565b6001600160a01b0381165f9081526020819052604090205460ff166105705760405162461bcd60e51b81526020600482015260096024820152683737ba1030b236b4b760b91b6044820152606401610481565b6001600160a01b0381165f81815260208190526040808220805460ff191690555133917fdb9d5d31320daf5bc7181d565b6da4d12e30f0f4d5aa324a992426c14a1d19ce91a350565b335f9081526020819052604090205460ff166105e75760405162461bcd60e51b81526004016104819061183f565b6001600160a01b0382166106315760405162461bcd60e51b81526020600482015260116024820152701a5b9d985b1a59081c9958da5c1a595b9d607a1b6044820152606401610481565b478111156106785760405162461bcd60e51b8152602060048201526014602482015273696e73756666696369656e742062616c616e636560601b6044820152606401610481565b5f826001600160a01b0316826040515f6040518083038185875af1925050503d805f81146106c1576040519150601f19603f3d011682016040523d82523d5f602084013e6106c6565b606091505b50509050806107175760405162461bcd60e51b815260206004820152601860248201527f7769746864726177207472616e73666572206661696c656400000000000000006044820152606401610481565b826001600160a01b03167ff3106f0aaac1fc36f1651815b79a498963f892adea93f15d7fd9db9c66f2fd278360405161075291815260200190565b60405180910390a2505050565b335f9081526020819052604090205460ff1661078d5760405162461bcd60e51b81526004016104819061183f565b5f6107978361126e565b6003810154909150600160a01b900460ff16156107f65760405162461bcd60e51b815260206004820152601a60248201527f77696e6e696e67206e756d62657220616c7265616479207365740000000000006044820152606401610481565b8054600160401b900467ffffffffffffffff164210156108445760405162461bcd60e51b8152602060048201526009602482015268746f6f206561726c7960b81b6044820152606401610481565b60018263ffffffff16101580156108665750805463ffffffff90811690831611155b6108a85760405162461bcd60e51b81526020600482015260136024820152726e756d626572206f7574206f662072616e676560681b6044820152606401610481565b805463ffffffff8316640100000000810267ffffffff00000000199092169190911782556003808301805460ff60a01b198116600160a01b90811783555f888152602094855260408082209682529590945293909220546001600160a81b03199092166001600160a01b0392831617909217918290551615801561093857506003810154600160a81b900460ff16155b15610a605760038101805460ff60a81b1916600160a81b179055600181015460028201545f906001600160a01b03161561097f5760028301546001600160a01b0316610981565b335b90505f816001600160a01b0316836040515f6040518083038185875af1925050503d805f81146109cc576040519150601f19603f3d011682016040523d82523d5f602084013e6109d1565b606091505b5050905080610a225760405162461bcd60e51b815260206004820152601c60248201527f61646d696e20726566756e64207472616e73666572206661696c6564000000006044820152606401610481565b857f936d06c1a912578ed6600db5c10c9cf6973ca58022d6ecf9ea6a01c98a92be2e84604051610a5491815260200190565b60405180910390a25050505b60038101546040805163ffffffff851681526001600160a01b03909216602083015284917f787a509f64119c7bfed9aeb8bc453bacea576768ebe43d35adbdc6a6d0718d299101610752565b335f9081526020819052604090205460ff16610ada5760405162461bcd60e51b81526004016104819061183f565b6001600160a01b038116610b205760405162461bcd60e51b815260206004820152600d60248201526c34b73b30b634b21030b236b4b760991b6044820152606401610481565b6001600160a01b0381165f9081526020819052604090205460ff1615610b785760405162461bcd60e51b815260206004820152600d60248201526c30b63932b0b23c9030b236b4b760991b6044820152606401610481565b6001600160a01b0381165f81815260208190526040808220805460ff191660011790555133917fbf3f493c772c8c283fd124432c2d0f539ab343faa04258fe88e52912d36b102b91a350565b5f610bce8361126e565b6003810154909150600160a01b900460ff1615610c255760405162461bcd60e51b81526020600482015260156024820152743bb4b73732b91030b63932b0b23c9031b437b9b2b760591b6044820152606401610481565b8054600160401b900467ffffffffffffffff164210610c775760405162461bcd60e51b815260206004820152600e60248201526d1cd95cdcda5bdb8818db1bdcd95960921b6044820152606401610481565b60018263ffffffff1610158015610c995750805463ffffffff90811690831611155b610cdb5760405162461bcd60e51b81526020600482015260136024820152726e756d626572206f7574206f662072616e676560681b6044820152606401610481565b5f83815260056020908152604080832033845290915290205460ff1615610d355760405162461bcd60e51b815260206004820152600e60248201526d185b1c9958591e481c1a58dad95960921b6044820152606401610481565b5f83815260036020908152604080832063ffffffff861684529091529020546001600160a01b031615610da25760405162461bcd60e51b81526020600482015260156024820152741b9d5b58995c88185b1c9958591e481c1a58dad959605a1b6044820152606401610481565b5f83815260036020908152604080832063ffffffff861680855290835281842080546001600160a01b03191633908117909155878552600484528285208186528452828520805463ffffffff1916909217909155868452600583528184209084529091529020805460ff19166001179055610e1d83836112d3565b60405163ffffffff83168152339084907f628a49b30ab3b878a4b01b3f2a2c367774e58f8edc07e10a0ecaf4f18eb33ca89060200160405180910390a3505050565b60605f610e6b8361126e565b80549091505f9061010090610e879063ffffffff1660ff611877565b610e91919061189e565b90508067ffffffffffffffff811115610eac57610eac6118b1565b604051908082528060200260200182016040528015610ed5578160200160208202803683370190505b5092505f5b81811015610f22575f8581526006602090815260408083208484529091529020548451859083908110610f0f57610f0f6118c5565b6020908102919091010152600101610eda565b505050919050565b335f9081526020819052604081205460ff16610f585760405162461bcd60e51b81526004016104819061183f565b610f6384848461132e565b949350505050565b5f610f758261126e565b6003810154909150600160a01b900460ff16610fcc5760405162461bcd60e51b81526020600482015260166024820152751dda5b9b9a5b99c81b9d5b58995c881b9bdd081cd95d60521b6044820152606401610481565b6003810154600160a81b900460ff16156110215760405162461bcd60e51b81526020600482015260166024820152751c185e5bdd5d08185b1c9958591e4818db185a5b595960521b6044820152606401610481565b60038101546001600160a01b03166110675760405162461bcd60e51b81526020600482015260096024820152683737903bb4b73732b960b91b6044820152606401610481565b60038101546001600160a01b031633146110b05760405162461bcd60e51b815260206004820152600a6024820152693737ba103bb4b73732b960b11b6044820152606401610481565b600181015460038201805460ff60a81b1916600160a81b1790556040515f90339083908381818185875af1925050503d805f8114611109576040519150601f19603f3d011682016040523d82523d5f602084013e61110e565b606091505b50509050806111585760405162461bcd60e51b81526020600482015260166024820152751c185e5bdd5d081d1c985b9cd9995c8819985a5b195960521b6044820152606401610481565b604051828152339085907fe97cee5a4c0549d3fdc81e322b718ddf0aeb3418ec87dce4f9a7fb28d117c3129060200160405180910390a350505050565b335f9081526020819052604081205460ff166111c35760405162461bcd60e51b81526004016104819061183f565b6111ce83835f61132e565b90505b92915050565b5f8281526005602090815260408083206001600160a01b038516845290915281205460ff166112405760405162461bcd60e51b81526020600482015260156024820152741c1b185e595c881a185cc81b9bdd081c1a58dad959605a1b6044820152606401610481565b505f9182526004602090815260408084206001600160a01b0393909316845291905290205463ffffffff1690565b5f8181526002602052604081208054909163ffffffff90911690036112ce5760405162461bcd60e51b81526020600482015260166024820152751cd95cdcda5bdb88191bd95cc81b9bdd08195e1a5cdd60521b6044820152606401610481565b919050565b5f6112df6001836118d9565b63ffffffff1690505f6112f46101008361189e565b90505f611303610100846118f5565b5f958652600660209081526040808820948852939052919094208054600190921b9091179055505050565b5f5f8463ffffffff161161137c5760405162461bcd60e51b815260206004820152601560248201527406d61784e756d626572206d757374206265203e203605c1b6044820152606401610481565b5f8363ffffffff16116113c75760405162461bcd60e51b815260206004820152601360248201527206d696e75746573206d757374206265203e203606c1b6044820152606401610481565b5f341161140b5760405162461bcd60e51b815260206004820152601260248201527107061796f7574206d757374206265203e20360741b6044820152606401610481565b6001600160a01b038216158061143857506001600160a01b0382165f9081526020819052604090205460ff165b61147b5760405162461bcd60e51b815260206004820152601460248201527334b73b30b634b2103932b33ab7321030b236b4b760611b6044820152606401610481565b50600180549081905f61148d83611908565b909155505f905061149f84603c611920565b6114af9063ffffffff1642611877565b90506040518061010001604052808663ffffffff1681526020015f63ffffffff1681526020018267ffffffffffffffff168152602001348152602001846001600160a01b031681526020015f6001600160a01b031681526020015f151581526020015f151581525060025f8481526020019081526020015f205f820151815f015f6101000a81548163ffffffff021916908363ffffffff1602179055506020820151815f0160046101000a81548163ffffffff021916908363ffffffff1602179055506040820151815f0160086101000a81548167ffffffffffffffff021916908367ffffffffffffffff160217905550606082015181600101556080820151816002015f6101000a8154816001600160a01b0302191690836001600160a01b0316021790555060a0820151816003015f6101000a8154816001600160a01b0302191690836001600160a01b0316021790555060c08201518160030160146101000a81548160ff02191690831515021790555060e08201518160030160156101000a81548160ff021916908315150217905550905050817f3016ce5f3297b7ac3410ac403794344960492998a9941c379d85060b0dd5309886348460405161169c9392919063ffffffff939093168352602083019190915267ffffffffffffffff16604082015260600190565b60405180910390a2509392505050565b6001600160a01b03811681146116c0575f5ffd5b50565b5f602082840312156116d3575f5ffd5b81356116de816116ac565b9392505050565b5f5f604083850312156116f6575f5ffd5b8235611701816116ac565b946020939093013593505050565b5f5f60408385031215611720575f5ffd5b823591506020830135611732816116ac565b809150509250929050565b803563ffffffff811681146112ce575f5ffd5b5f5f60408385031215611761575f5ffd5b823591506117716020840161173d565b90509250929050565b5f6020828403121561178a575f5ffd5b5035919050565b602080825282518282018190525f918401906040840190835b818110156117c85783518352602093840193909201916001016117aa565b509095945050505050565b5f5f5f606084860312156117e5575f5ffd5b6117ee8461173d565b92506117fc6020850161173d565b9150604084013561180c816116ac565b809150509250925092565b5f5f60408385031215611828575f5ffd5b6118318361173d565b91506117716020840161173d565b6020808252600a908201526937b7363c9030b236b4b760b11b604082015260600190565b634e487b7160e01b5f52601160045260245ffd5b808201808211156111d1576111d1611863565b634e487b7160e01b5f52601260045260245ffd5b5f826118ac576118ac61188a565b500490565b634e487b7160e01b5f52604160045260245ffd5b634e487b7160e01b5f52603260045260245ffd5b63ffffffff82811682821603908111156111d1576111d1611863565b5f826119035761190361188a565b500690565b5f6001820161191957611919611863565b5060010190565b63ffffffff818116838216029081169081811461193f5761193f611863565b509291505056fea2646970667358221220be135384c0b3425b25828a39d4f17166b01163bd2fbc1fe695f91792f940a58d64736f6c634300081c0033",
  "linkReferences": {},
  "deployedLinkReferences": {},
  "immutableReferences": {},
  "inputSourceName": "project/contracts/NumberGuessingGame.sol",
  "buildInfoId": "solc-0_8_28-c96ec2a832bad1194d19e41b78ef74e8eb4c8851"
}